:100000000C944B00189518951895189518951895F7
:100010001895189518951895189518951895189578
:100020001895189518951895189518951895189568
:100030001895189518951895189518951895189558
:100040001895189518951895189518951895189548
:100050001895189518951895189518951895189538
:100060001895189518951895189518951895189528
:100070001895189518951895189518951895189518
:100080001895189518951895189518950FEF07BBA2
:1000900000E008BBFDCF0FE30DBF01E00EBFC0E2E3
:1000A000D1E00E9459000E9446000E945B000C941F
:0C00B0005B0001E0089500008895FECF81
:00000001FF
