:100000000C94CC191895189518951895189518955D
:10001000189518950C94FC000C94E6000C94D600EE
:100020000C94C6000C94EB0F18951895189518951C
:100030000C94BD0918951895189518950C94F50C05
:1000400018951895189518950C94310B0C94440D2F
:100050001895189518951895189518951895189538
:1000600018951895189518950C9485191895189544
:1000700018951895189518950C94210E0C9440100D
:10008000189518951895189518951895005EBCE266
:10009000613FDD83C29C7E20A3FD1F419DC3217F64
:1000A000FCA2401E5F01E3BD3E6082DC237D9FC158
:1000B000421CFEA0E1BF5D0380DE3C62BEE0025C4C
:1000C000DF81633D7C22C09E1D43A1FF4618FAA438
:1000D00027799BC584DA3866E5BB5907DB85673924
:1000E000BAE406581947A5FB7826C49A653BD98718
:1000F000045AB8E6A7F91B45C6987A24F8A6441A0C
:1001000099C7257B3A6486D85B05E7B98CD2306EF7
:10011000EDB3510F4E10F2AC2F7193CD114FADF3E3
:10012000702ECC92D38D6F31B2EC0E50AFF1134DD7
:10013000CE90722C6D33D18F0C52B0EE326C8ED0CB
:10014000530DEFB1F0AE4C1291CF2D73CA947628B7
:10015000ABF517490856B4EA6937D58B5709EBB5A3
:1001600036688AD495CB2977F4AA4816E9B7550B97
:1001700088D6346A2B7597C94A14F6A8742AC8968B
:10018000154BA9F7B6E80A54D7896B35FA93EA9369
:100190001A930A931FB7E1EDF3E000810E7F00830D
:1001A000DF9A09B70F7709BF00E81FC0FA93EA93F7
:1001B0001A930A931FB7E1EDF3E000810D7F0083EE
:1001C000DD9A09B70F7B09BF00E40FC0FA93EA93E9
:1001D0001A930A931FB7E1EDF3E000810B7F0083D0
:1001E000D99A09B70F7D09BF00E208BF1FBF099167
:1001F0001991E991F9911895FA93EA931A930A9350
:100200001FB7E1EDF3E00081077F008300916200FA
:1002100001600093620009B70F7E09BF00E1E5CFDE
:100220009A928A927A926A925A924A92BA93AA932C
:100230009A938A93902E9094882483ED9BE0DC011E
:1002400001E010E0482D0E940B1A2801380160944B
:1002500070940921B9F000E0FD0102A303A300A3FB
:1002600001A3028303830D930C931197FC0100A952
:1002700011A90429152900AB11AB04A915A9062160
:1002800017211EC0082D0395FC0124A935A924219E
:100290003123232B61F00E94AD19002399F4FC0156
:1002A00000A911A90621172100AB11AB0BC028EB47
:1002B0003BE00E949D19FC0104A915A904291529F8
:1002C00004AB15AB8394149604E0801608F4B8CF01
:1002D00089919991A991B991499059906990799092
:1002E0008990999008959A938A93902F80E0009135
:1002F000D1030F3009F094DF90FB36F4DF9A0091C0
:10030000650004600093650091FB16F4DD9ADE9AA7
:1003100092FB16F4D99ADA9A93FB46F400916200A4
:1003200001600093620002600093620001E00093AC
:10033000D80E00E21CE120E030E00E9449090EEDF9
:1003400013E020E030E00E94490902E418E120E0D7
:1003500030E00E9449090F9B81E00E9B82600D9B5B
:1003600084600C9B8860082F00955ADF0FE0009393
:10037000D10300EF08BF09B7006F09BF082F8991AB
:10038000999108954A92BA93AA939A938A93D8011D
:10039000922F87E0FD0100810170118110FB10E0B8
:1003A00011F9102B028100FB00E002F9012B1381EF
:1003B00010FB442443F8402A0091D1030F3009F088
:1003C0002FDFF894DF9A00916500046000936500C8
:1003D000DD9ADE9AD99ADA9A009162000160009360
:1003E000620002600093620007B7006107BF01E08E
:1003F0000EBD03E010E01DBD0CBD04E713E01BBD06
:100400000ABD01E00093D80E00E106BF40FA36F4C1
:10041000009165000B7F00936500DF9A41FA16F4A6
:10042000DE98DD9A42FA16F4DA98D99A43FA46F43D
:10043000009162000D7F00936200016000936200F2
:100440000CB51DB5033C20E01040D0F301B101B163
:1004500001B101B178940091D80E0023E1F7F8942E
:100460000DE012E01BBD0ABD01E00093D80E2DBDCA
:100470002CBD78940091D80E0023E1F70FE0009393
:10048000D10300EF08BF09B7006F09BFFD0100816C
:1004900006950083018106950183028106950283FA
:1004A0000381069503838A9509F074CF0C9101703E
:1004B000118110FB10E011F9102B028100FB00E00C
:1004C00002F9012B138110FB80E083F9802BA82F08
:1004D000A1FBA0E0A0F9B82FB2FBB0E0B0F9482E24
:1004E00043FA442440F899230091D10309F45AC0F7
:1004F0000F3009F095DEF894DF9A009165000460F2
:1005000000936500DD9ADE9AD99ADA9A009162002A
:1005100001600093620002600093620007B700610F
:1005200007BF01E00EBD03E010E01DBD0CBD04E7F8
:1005300013E01BBD0ABD02E00093D80E00E106BF28
:1005400080FB36F4009165000B7F00936500DF9A15
:10055000AA2311F0DE98DD9ABB2311F0DA98D99A1C
:10056000442041F0009162000D7F00936200016021
:10057000009362000CB51DB5033C20E01040D0F3A1
:1005800001B101B101B101B178940091D80E0023FD
:1005900009F070C0F8940DE012E01BBD0ABD109385
:1005A000D80E59C00F3009F03BDEF894DF9A009165
:1005B0006500046000936500DD9ADE9AD99ADA9AA4
:1005C000009162000160009362000260009362008B
:1005D00007B7006107BF01E00EBD03E010E01DBDDD
:1005E0000CBD04E713E01BBD0ABD01E00093D80E6B
:1005F00000E106BF80FB36F4009165000B7F00939D
:100600006500DF9AAA2311F0DE98DD9ABB2311F072
:10061000DA98D99A442041F0009162000D7F00934E
:1006200062000160009362000CB51DB5033C20E040
:100630001040D0F301B101B101B101B17894009142
:10064000D80E0023E1F7F8940DE012E01BBD0ABDBF
:1006500001E00093D80E2DBD2CBD78940091D80EEA
:100660000023E1F70FE00093D10300EF08BF09B7C3
:10067000006F09BF89919991A991B9914990089505
:10068000BA93AA939A938A93D80188E09FE0009145
:10069000D1030F3009F0C4DDF894DF9A00916500B2
:1006A000046000936500DD9ADE9AD99ADA9A009187
:1006B000620001600093620002600093620007B76D
:1006C000006107BF01E00EBD03E010E01DBD0CBDE1
:1006D00004E713E01BBD0ABD01E00093D80E00E162
:1006E00006BF009165000B7F00936500DF9ADE98DE
:1006F000DD9ADA98D99A009162000D7F009362002A
:100700000160009362000CB51DB5033C20E0104071
:10071000D0F30F9B9EE00E9B9D7F0D9B9B7F0C9BC0
:10072000977F78940091D80E0023E1F7F8940DE0BC
:1007300012E01BBD0ABD01E00093D80E2DBD2CBDFB
:1007400078940091D80E0023E1F70FE00093D103D5
:1007500000EF08BF09B7006F09BF0C9106950C9315
:10076000FD010181069501830281069502830381C3
:100770000695038390FB1EF40C9100680C9391FB8B
:100780001EF401810068018392FB1EF4028100685F
:10079000028393FB1EF40381006803838A9509F0AA
:1007A00075CF89919991A991B99108957A926A9298
:1007B0005A924A92BA93AA939A938A932497802F33
:1007C000D901912F012F8FDD092311F00FEF67C1A0
:1007D00000EF088309830A830B8320E08E01D2DDBA
:1007E000662400E4402E08E0502E0FE0702E0091A9
:1007F000D1030F3009F014DDF894DF9A0091650001
:10080000046000936500DD9ADE9AD99ADA9A009125
:10081000620001600093620002600093620007B70B
:10082000006107BF01E00EBD03E010E01DBD0CBD7F
:1008300004E713E01BBD0ABD01E00093D80E00E100
:1008400006BF009165000B7F00936500DF9ADE987C
:10085000DD9ADA98D99A009162000D7F00936200C8
:100860000160009362000CB51DB5033C20E0104010
:10087000D0F30F9902C00EE0702E0E9902C0E894DA
:1008800071F80D9902C0E89472F80C9902C0E894CE
:1008900073F878940091D80E0023E1F7F8940DE0F6
:1008A00012E01BBD0ABD01E00093D80E2DBD2CBD8A
:1008B00078940091D80E0023E1F70FE00093D10364
:1008C00000EF08BF09B7006F09BF492F47210FE0AC
:1008D000F894DF9A10916500146010936500DD9A1A
:1008E000DE9AD99ADA9A1091620011601093620030
:1008F00012601093620017B7106117BF11E01EBDA0
:1009000023E030E03DBD2CBD24E733E03BBD2ABDF4
:100910001093D80E10E116BF109165001B7F109345
:100920006500DF9ADE98DD9ADA98D99A1091620014
:100930001D7F109362001160109362002CB53DB5CD
:10094000233C3040D8F30F9B0EE00E9B0D7F0D9B98
:100950000B7F0C9B077F78941091D80E1123E1F741
:10096000F8942DE032E03BBD2ABD11E01093D80E83
:1009700020E02DBD2CBD78941091D80E1123E1F705
:100980001FE01093D10310EF18BF19B7106F19BFF4
:10099000192F102321F0442371F00EEF80C044235F
:1009A00051F4481630F0FD01008100FF04C08415A9
:1009B00011F0492F642CF894DF9A009165000460CF
:1009C00000936500DD9ADE9AD99ADA9A0091620066
:1009D00001600093620002600093620007B700614B
:1009E00007BF01E00EBD03E02DBD0CBD04E713E021
:1009F0001BBD0ABD01E00093D80E00E106BF40FB1D
:100A000036F4009165000B7F00936500DF9A41FB8F
:100A100016F4DE98DD9A42FB16F4DA98D99A43FB75
:100A200046F4009162000D7F009362000160009324
:100A300062000CB51DB5033C1040D8F301B101B103
:100A400001B101B178940091D80E0023E1F7F89438
:100A50000DE03BBD0ABD01E00093D80E2DBD2CBDBD
:100A600078940091D80E0023E1F70FE00093D103B2
:100A700000EF08BF09B7006F09BF0C9106950C93F2
:100A8000092F042319F00C9100680C934A945A948E
:100A900009F0ABCE1196442009F0A5CE062D249680
:100AA00089919991A991B9914990599069907990BA
:100AB00008954A92BA93AA939A938A932497C80165
:100AC000D9010FE010DC0A2F0B2B89F005E5088314
:100AD00009830A830B8320E08E0154DC08E0402E5A
:100AE00020E00D911D914EDC4A94D1F708C00CEC2A
:100AF000088309830A830B8320E08E0143DCFC0119
:100B00000081043411F421E001C020E08C013ADCC2
:100B10002496B0CD0091D80E002399F4E8E5F0E1D9
:100B200000811181E3EDFBE0048B158B0091D20372
:100B3000002311F00C94B1140E94781401E000938A
:100B4000D2030895AA929A928A927A926A925A92BB
:100B50004A92BA93AA939A938A932897ACEBB1E0FE
:100B60000C91007F09F086C0FD010181007F138197
:100B7000100F11839E018D010F5F1F4F0E947D1882
:100B8000FD010181007769F000E8018300E0028344
:100B90000381000F0383093008F46CC001E0038374
:100BA00069C003810E94CF18C801012BFD0181F3A8
:100BB000018107FF33C00281023038F003810295C2
:100BC000007F1C91102B1C931FC00130E9F403819E
:100BD0000F701C91102B1C933C014D0104E0800E02
:100BE00000E0901E04E0A02EF401318120818301F9
:100BF0000E948A0702E0800E00E0901E01E0600E75
:100C000000E0701EAA9481F700E0FD0102830381D9
:100C1000000F0383093010F001E0038303810A957C
:100C200039F00A9549F0025051F0045059F00DC0C6
:100C30000CE7402E01E008C0442402E005C000E8B3
:100C4000402EFBCF442403E0502E018107FD12C04B
:100C5000AC0192018E010E942919002359F0FD0177
:100C60000281039502831496FE0108E011911D9301
:100C70000A95E1F7289689919991A991B99149909E
:100C800059906990799089909990A9900895BA9314
:100C9000AA932897A8ECB1E0FD01008501600087C8
:100CA0009E018D01085F1F4F0E947D18FD01008588
:100CB000007711F003E03CC09D018E0148E0F8018F
:100CC00051918F01F90151939F014A95C1F7FD019F
:100CD000008507FF02C001E02BC09E018D01085F67
:100CE0001F4F0E947D18FD010085007719F70085D0
:100CF00007FD02C002E01CC02C91318100E711E029
:100D00000E948A07FD012281338101E711E00E94E0
:100D10008A07FD012481358102E711E00E948A07DC
:100D2000FD012681378103E711E00E948A0700E078
:100D30002896A991B9910895113170F4103160F09D
:100D40001051000F111FF801ED52F44F0081118175
:100D5000F9010083118319C0003044E0140718F42E
:100D60004FB7F89407C00031140788F44FB7F894D0
:100D7000005A1040000F111FF801ED52FC4F008186
:100D80001181F901008311834FBF00E0089502E053
:100D90000895E199FECFF8941FBB0EBB2DBBE29ADC
:100DA000E19A78940895BA93AA93A3EDBDE0FD016A
:100DB0000481002309F482C0E09980C003810023EC
:100DC00039F10A9529F00A9591F00A95B9F01EC0FB
:100DD0000D911C911197000F111F0F5F1F4F228162
:100DE00032E0239FF001E852F24F21811DC00D91A6
:100DF0001C911197000F111F185F0FC00D911C91CE
:100E00001197000F111F0F5F174FE9CF00E0038309
:100E10000D911C911197000F111F228132E0239F29
:100E2000F001E852F24F2081E19948C0B2DFFD01A4
:100E3000038103950383043009F040C00FB7F89491
:100E4000128122E0129FF001E852F24F208131819D
:100E50004D915C911197440F551FFA01ED52FC4FD3
:100E6000208331830FBF22C00D911C911197000F79
:100E7000111FF801ED52FC4F00811181FD0122810B
:100E800032E0239FF001E852F24F208131810217B6
:100E90001307A1F40D911C910F5F1F4F1C930E932C
:100EA000FD0102810395028300E00383FD010281BD
:100EB00014810117C8F211F400E00483A991B991DB
:100EC0000895BA93AA93B8011FB7F894E3EDFDE033
:100ED0000481002319F01FBF06E019C0248300E03D
:100EE00002831FBF222369F008ED1DE0DA010D9097
:100EF0001C90D8011D920D928D014E5F5F4F2A9577
:100F0000A9F76083718300E003834DDF00E0A991BE
:100F1000B99108955A924A92BA93AA939A938A934E
:100F20002801C901E199FECFD801AA0FBB1F8D018D
:100F300030DFE199FECF292F8D010F5F1F4F29DF91
:100F4000E199FECF282F8D01185F23DFE199FECFB5
:100F5000292FAF5FB74F8D011CDF440C551CF201E8
:100F6000ED52FC4F8083918300E089919991A99182
:100F7000B99149905990089521E030E001E011E0E5
:100F8000C9DF20EC30E002E011E0C4DF22E030E015
:100F900003E011E0BFDF01E010E0E5EDF5E00083E4
:100FA000118300ECE7EDF5E00083118302E0E9ED49
:100FB000F5E0008311830895BA93AA939A938A93D4
:100FC00040E058E00E94E819D80140E050E00E945B
:100FD000E819C8010F3F0FEF900709F04CC0AF3F71
:100FE000B00709F048C044E05AE00E94E819D8016F
:100FF00044E052E00E94E819C8010F3F0FEF90074C
:10100000D1F5AF3FB007B9F546E05AE00E94E819C4
:10101000D80146E052E00E94E819C8010F3F0FEFE7
:10102000900749F5AF3FB00731F52CE030E000E024
:1010300010E070DFA1DF22E030E004E011E06ADFC1
:1010400020E030E00FE711E065DFA89580E691E051
:1010500020E030E08C015EDF0196803701E09007F0
:10106000BCF380E893E0A89525E531E08C0152DFE0
:1010700001969430C4F39C010AE010E04BDF9D011F
:101080000BE010E047DF46E050E00E94E819033033
:10109000114051F003E011E046E050E00E94F619E3
:1010A00046E058E00E94F61980E090E0E3EDF3E0BE
:1010B0009C01220F331FA9010E94E819019311938B
:1010C00001969430ACF328D0E3EDFBE020E400E09F
:1010D000019301932A95D9F789919991A991B99191
:1010E0000895392F282F80E090E0E3EDF3E0000F22
:1010F000111FE00FF11F008111810F3F1F4F11F0F1
:1011000000E007C001963296843000E090079CF31F
:1011100001E0822F932F0895BA92AA929A928A920E
:101120007A926A925A924A92BA93AA939A938A931B
:1011300000E6A02E01E0B02E03E9402E06E0502E7E
:10114000A0E8B1E098E0F20100811181012B21F1CA
:1011500080E04D0101E010E0482F0E940B1A380199
:10116000F2010081118106211721012B71F0840108
:10117000B8DF002351F0F201008111816094709476
:101180006022712293018501C5DE839504E0800E03
:1011900000E0901E8031F0F2F20100891189012BEC
:1011A00021F180E04D0101E010E0482F0E940B1A70
:1011B0003801F2010089118906211721012B71F0F4
:1011C00084018FDF002351F0F201008911896094BE
:1011D000709460227122930185019CDE839504E066
:1011E000800E00E0901E8031F0F2A05CBF4F02E064
:1011F000400E00E0501E01E0A00E00E0B01E9A95E7
:1012000009F0A1CF89919991A991B99149905990EB
:101210006990799089909990A990B9900895192E24
:10122000082E81E090E0E2E0F8E09C01220F331FFD
:10123000A9010E94E819B801AF010E94E8196017DE
:10124000710711F08C0106C00196329694306CF350
:1012500000E010E0802D912D08955B2F0A2EF801FB
:101260006FEF4FEF0CC0019110E00627D801AF528D
:10127000BE4F6C916427D801AF52BD4F4C9189018C
:1012800021503040012B79F7042F162FA02DB52FB8
:101290000895F894E6EDFEE0003040E0140741E0E8
:1012A000240740E0340758F447B7406147BF41E0A6
:1012B0004EBD40E04DBD4CBD0454104052C0003006
:1012C000140748E0240740E03407B0F447B7406112
:1012D00047BF42E04EBD40E04DBD4CBD3695279521
:1012E0001795079536952795179507953695279560
:1012F000179507950451E1CF0030140740E4240707
:1013000040E0340768F447B7406147BF43E04EBD53
:1013100040E04DBD4CBD46E00E943D1A0250CDCF8D
:10132000313060F447B7406147BF44E04EBD40E014
:101330004DBD4CBD012F122F0150BFCF3430C0F432
:1013400047B7406147BF45E04EBD40E04DBD4CBD95
:10135000012F122F232F2695179507952695179560
:1013600007951BBD0ABD01E0028300E106BF78942A
:10137000789402810023E9F70895FA93EA933A9367
:101380002A931A930A933FB70091D80E013009F4BB
:1013900062C0023009F049C0009165000B7F0093E4
:1013A0006500DE98DA98009162000D7F009362007C
:1013B000E3EDFBE020A9217004A9017011E01027E2
:1013C000122309F4DF9800A901FF02C004A901FD5E
:1013D000DD9800A902FF02C004A902FDD99800A966
:1013E00003FF03C004A903FF05C0009162000E7F44
:1013F0000093620003E00093D80E00E21EE4E6EDE5
:10140000FEE00083118300E00DBD0CBD08E512E095
:101410001BBD0ABD01E00EBD0FE00093D10300EF3C
:1014200008BF09B7006F09BF2BC00330A1F4E6ED78
:10143000FEE0008111810150104000831183012BD7
:1014400019F400E002831CC00CB51DB5085512400C
:101450001DBD0CBD15C0009165000B7F009365009C
:10146000DF9ADE98DD9ADA98D99A009162000D7FB2
:101470000093620001600093620000E00093D80EC8
:101480003FBF0991199129913991E991F9911895E5
:10149000E9EDFEE0028313832083318308950AB7C8
:1014A0000A6A0ABF08B7006F08BF08950FEF04BBB0
:1014B000009164000360009364000895009161004E
:1014C0000360009361000091640004600093640075
:1014D0000AB3066E0ABB0895009165000B7F009366
:1014E0006500DF9ADE98DD9ADA98D99A0091620059
:1014F0000D7F00936200016000936200D0DFD6DFB1
:10150000DDDF00E00093D80E0FE00093D1030895D3
:101510005B2F4A2FF801F894D09AD89802E00BB9C3
:1015200008E10AB906E00093950006EE1EE0D80136
:1015300013963C93222329F02A9551F02A9521F005
:101540000DC02091950008C026E22093950004C0AC
:1015500026E22093950026E320939500ADEDBEE0B2
:10156000F09781F0F097F1F0E056F04059F1E05C2F
:10157000F040A1F1E05CF040F9F1E054F24009F4F0
:1015800049C054C02FE823BF2FE729B921E0209399
:1015900090002FE729B923E5FD01228324E7238367
:1015A00024E951C029E2FD0122832AE323832FE8A5
:1015B00023BF2AE421BF248320E0209390002FEB57
:1015C00029B943C022E5FD01228324E723832EE8C5
:1015D00023BF20E0209390002FE533C029E2FD01D6
:1015E00022832AE323832EE823BF20E02093900068
:1015F0002FE229B92AE427C02CE1FD01228327E24A
:1016000023832EE823BF20E0209390002FE129B907
:1016100021E319C029E2FD0122832AE323832EE876
:1016200023BF20E0209390002FE0E3CF22E5FD01CF
:10163000228324E723832EE823BF25E9209390000B
:1016400020E029B925E921BF248320E0F801218386
:1016500022BF07B7026007BF579A7894A42FB52F0F
:101660000895BA93AA93FA93EA933A932A931A9312
:101670000A933FB7E6EEFEE00181002359F1013005
:10168000D1F400E002BF02E006BF07B7026007BF67
:101690000BB10471F9F402E0018302810938D0F43E
:1016A0002CB1DF01149610E0A00FB11F2C93028122
:1016B0000395028316C002B71091E10E011750F492
:1016C0000BB1047139F400E002BF2CB1DF011496B4
:1016D0000281E9CF00E002830A930CB1099102BFB5
:1016E000018300003FBF0991199129913991E99136
:1016F000F991A991B9911895F89430E032BFD89A30
:10170000EDEDFEE0338131BF33E03093E70E37B7C4
:10171000326037BF00831183258378940895BA938C
:10172000AA939A938A93E6EEFEE0368120E0078141
:1017300010E0020F131F073727E0120729F401E01A
:101740000093E40E00E05FC00837120739F42485E7
:101750002A3A21F401E00093E30EF4CF20852223FE
:1017600079F4218532E0239F228530E002161306AA
:1017700039F42185200F311F313120F002E043C0C0
:1017800003E041C0013024E0120720F0103110F4D2
:1017900007E039C0103118F123ED3BE01051000F84
:1017A000111F200F311F00E016C0F894402F50E0A9
:1017B000DF011496CA010796A80FB91F7C91DF01BB
:1017C0001496485F5F4FA40FB51F4C91D9014D93FC
:1017D0007C93789403951185011738F3B3CF0130CA
:1017E00020E0120719F00230120739F42091E30EBD
:1017F000222321F220E02093E30EAF01455F5F4FEB
:1018000021850E94610789919991A991B9910895C3
:10181000E6EEFEE000E0028301E001830CB10CB1D2
:101820000CB1579A0895BA93AA93102FA6EEBEE072
:1018300013960C9119960C9317970C9118960068B3
:101840000D931C931E9723E030E08D01045F1F4F22
:101850000E942D091F961D930C93149725E08D016E
:101860004BDFA991B99108957A926A925A924A925D
:10187000BA93AA939A938A932297A6EEBEE0FD01AB
:10188000228130E08D010C5F1F4F0E942D09012B3A
:1018900011F0BEDFA0C0F894E5EEFEE0008101602B
:1018A00000837894FD010581033009F048C016815A
:1018B00000E0878190E0800F911F0185013488F45A
:1018C0000085002371F40381048703E00587018507
:1018D000000F06873D010FE0600E00E0701E2C0136
:1018E0000CC003E077C01981F301119308810193C3
:1018F0003F0101E0400E00E0501EFD01018510E0B7
:10190000080F191F4016510638F49E0182010E94EB
:101910009C06002341F35EC0268530E02D5F3F4FDB
:101920008D01045F1F4F0E942D09F3011083018375
:10193000FD0126852B5F1C968D01DEDE4CC000313B
:10194000E9F4EDDE002309F045C0FD0103810487C1
:1019500000E1058706810687078107870085008BE0
:101960000185018B26E030E08D01045F1F4F0E944E
:101970002D09FD01128B038B28E0DDCF083019F40F
:1019800022811496D9CF0F3F21F506810C3019F52D
:101990000781002301F5E3EDF3E042815381FD016E
:1019A0003185008540175307B1F40AE71FE022850F
:1019B000F8012383FD012383248327E030E08D0198
:1019C0000C5F1F4F0E942D09FD011387048729E03A
:1019D000D8CF05E028DF229689919991A991B991F4
:1019E000499059906990799008959A938A93FA93BF
:1019F000EA933A922A921A920A927A936A935A93A3
:101A00004A933A932A931A930A938FB79BB757989E
:101A100007B70D7F07BFE6EEFEE00181002311F45A
:101A2000F7DE1EC0023061F402810830C8F3038182
:101A30001481011711F0112399F7789415DF10C064
:101A4000033031F404E001830AB108620AB908C026
:101A5000053021F401E00183D898E2CF00E0018352
:101A600000009BBF8FBF099119912991399149912C
:101A70005991699179910990199029903990E9913A
:101A8000F991899199911895BA93AA93FA93EA9347
:101A90001A930A931FB7EDEDFEE00581002349F08C
:101AA0000A950583A081B1810D91A083B1830CB902
:101AB0000DC0559805E00093E70E038101BF00E0DB
:101AC00002BF02E006BF07B7026007BF1FBF099150
:101AD00019910DCE5B2F4A2FF801F894BE9AC69843
:101AE00002E000939B0008E100939A0008E900934C
:101AF0009A0006E000939D00AAE7BFE013963C938E
:101B00001397222361F02A9531F02A9551F406E2C9
:101B100000939D0004C006E200939D0006E300933D
:101B20009D00F09789F0F09711F1E056F04091F1A7
:101B3000E05CF040E1F1E05CF04009F448C0E054C2
:101B4000F24009F454C060C00DE805BD0FE70093F2
:101B5000990001E0009398000FE70093990003E5D6
:101B60000093DF0E04E70093E00E04E95CC009E295
:101B70000093DF0E0AE30093E00E0DE805BD0AE4D2
:101B800003BD0093E10E00E0009398000FEB00937B
:101B900099004CC002E50093DF0E04E70093E00ECD
:101BA0000CE805BD00E0009398000FE539C009E29C
:101BB0000093DF0E0AE30093E00E0CE805BD00E0A1
:101BC000009398000FE2009399000AE42CC00CE106
:101BD0000093DF0E07E20093E00E0CE805BD00E085
:101BE000009398000FE10093990001E31CC009E203
:101BF0000093DF0E0AE30093E00E0CE805BD00E061
:101C0000009398000FE0DFCF02E50093DF0E04E7BA
:101C10000093E00E0CE805BD05E90093980000E094
:101C20000093990005E903BD0093E10E00E0FD017A
:101C3000018304BD07B7006807BF7894A42FB52FB0
:101C40000895BA93AA93FA93EA933A932A931A932C
:101C50000A933FB7EAE7FFE00181002379F1013001
:101C6000E1F400E004BD00E806BF07B7006807BF65
:101C700000919B00047111F502E001830281093893
:101C8000E8F420919C00DF01149610E0A00FB11F32
:101C90002C9302810395028319C004B51091E10EC3
:101CA000011760F400919B00047141F400E004BD51
:101CB00020919C00DF0114960281E7CF00E00283AF
:101CC0000A9300919C00099104BD018300003FBF6D
:101CD0000991199129913991E991F991A991B991B4
:101CE0001895F89430E034BDC69A3091E00E33BDBB
:101CF00033E030937B0F37B7306837BFEEE0F0E169
:101D000000831183228378940895BA93AA939A93B7
:101D10008A93EAE7FFE0368120E0078110E0020FB6
:101D2000131F073727E0120729F401E00093E40EA0
:101D300000E05FC00837120739F424852A3A21F4FD
:101D400001E00093E30EF4CF2085222379F421856E
:101D500032E0239F228530E00216130639F42185F4
:101D6000200F311F313120F002E043C003E041C0B9
:101D7000013024E0120720F0103110F407E039C0E0
:101D8000103118F123ED3BE01051000F111F200F0F
:101D9000311F00E016C0F894402F50E0DF01149688
:101DA000CA010796A80FB91F7C91DF011496485FFE
:101DB0005F4FA40FB51F4C91D9014D937C9378943C
:101DC00003951185011738F3B3CF013020E01207D6
:101DD00019F00230120739F42091E30E222321F288
:101DE00020E02093E30EAF01455F5F4F21850E9405
:101DF000610789919991A991B9910895EAE7FFE066
:101E000000E0028301E0018300919C0010919A00A0
:101E1000106810939A000895BA93AA93102FAAE716
:101E2000BFE013960C9119960C9317970C91189686
:101E300000680D931C931E9723E030E08D01045F32
:101E40001F4F0E942D091F961D930C93149725E098
:101E50008D0147DFA991B99108957A926A925A92B9
:101E60004A92BA93AA939A938A932297AAE7BFE0D9
:101E7000FD01228130E08D010C5F1F4F0E942D0972
:101E8000012B11F0BBDF9DC0F894E5EEFEE0008170
:101E9000026000837894FD010581033009F048C099
:101EA000168100E0878190E0800F911F0185013449
:101EB00088F40085002371F40381048703E005871B
:101EC0000185000F06873D010FE0600E00E0701EE7
:101ED0002C010CC003E074C01981F3011193088137
:101EE00001933F0101E0400E00E0501EFD0101851D
:101EF00010E0080F191F4016510638F49E018201A8
:101F00000E949C06002341F35BC0268530E02D5FD4
:101F10003F4F8D01045F1F4F0E942D09F301108375
:101F20000183FD0126852B5F1C968D01DADE49C0F9
:101F30000031E9F4EADE002309F042C0FD0103812B
:101F4000048700E1058706810687078107870085EA
:101F5000008B0185018B26E030E08D01045F1F4F6F
:101F60000E942D09FD01128B038B28E0DDCF083084
:101F700019F422811496D9CF0F3F09F506810C3050
:101F800001F507810023E9F4E3EDF3E04281538199
:101F9000FD01318500854017530799F402850383BD
:101FA0000093E90E048327E030E08D010C5F1F4FA2
:101FB0000E942D09FD011387048729E0DBCF05E08E
:101FC0002BDF229689919991A991B99149905990C5
:101FD0006990799008959A938A93FA93EA933A9242
:101FE0002A921A920A927A936A935A934A933A934C
:101FF0002A931A930A938FB79BB700919A000F7791
:1020000000939A0007B70F7707BFEAE7FFE0018167
:10201000002311F4F3DE20C0023061F402810830A5
:10202000C8F303811481011711F0112399F77894F3
:1020300014DF12C0033041F404E0018300919A00E0
:10204000086200939A0008C0053021F401E0018382
:10205000C698E0CF00E0018300009BBF8FBF0991CD
:1020600019912991399149915991699179910990E1
:10207000199029903990E991F99189919991189540
:10208000BA93AA93FA93EA931A930A931FB700910B
:102090001010002361F0EEE0F0E10A950283A081C8
:1020A000B1810D91A083B18300939C0012C0009177
:1020B0009A000F7D00939A0005E000937B0F00913A
:1020C000E00E03BD00E004BD00E806BF07B70068EE
:1020D00007BF1FBF09911991FFCD202F212B61F060
:1020E000ECE4F4E0000031972E2F2F2BD9F70150AC
:1020F0001040202F212BA1F708950FEF04BB03E020
:102100000093640000E005BB00936500AF9A009166
:102110006500086000936500006100936500969A71
:10212000979A0895BA93AA93A3EDBBE0FD0111A974
:102130001F7759F0E8E5F0E1018102FD03C0AE9A96
:10214000AF983AC1AE98AF9A37C101A907FF96C0C0
:10215000009120100230E9F005B30F7305BB05B301
:102160000F7C05BB05B3037F05BB05B30C7F05BB27
:10217000009165000E7F009365000D7F0093650060
:1021800002E00093201028EE33E000E00E949D1949
:1021900013C100E00E94AD19002309F00DC10091A8
:1021A000BC01002328EE33E000E0C1F40E949D1939
:1021B00000E415B3102715BB00E115B3102715BBBC
:1021C00004E015B3102715BB01E015B3102715BBAC
:1021D00010916500102710936500EEC00E949D19B4
:1021E0000091BC01007F19F0AE98AF9A05C000E4E1
:1021F00015B3102715BBAF98ECEBF1E0008105FF9C
:1022000005C0AA9808E015B3102715BB008106FF8A
:1022100005C0A89802E015B3102715BB008107FF81
:1022200005C0009165000E7F00936500008101FFED
:102230000AC0AA9808E015B3102715BBAB9903C0D4
:1022400000810D7F0083008102FF0AC0A89802E090
:1022500015B3102715BBA99903C000810B7F00831C
:10226000008103FFA9C0009165000E7F0093650007
:1022700001FDA2C00081077F00839EC00091201055
:102280000F700330A9F005B30F7C05BB05B3037FC6
:1022900005BB05B30C7F05BB009165000E7F009365
:1022A00065000D7F00936500AF98AE9A03E069CF9B
:1022B00000912010007FD89902C0C69B1EC0AF9825
:1022C00051F4AE9828EE33E000E00E949D1903E837
:1022D0000093201020C000E00E94AD190023D9F423
:1022E000AE9907C0AE9A28EC30E000E00E949D193C
:1022F00012C0AE9828EE33E0F8CF61F0AE9B07C075
:1023000000E00E94AD19002331F403E0E1CF03E0C7
:1023100000932010AE9AFD0100A90170EEE2F0E1F9
:1023200010811170102B51F0E8E5F0E1018102FD00
:1023300003C0AC9AAD9802C0AC98AD9AE7E9F6E05C
:1023400000811181012B31F4E9E9F6E0008111816E
:10235000012B19F0AA98AB9A10C0FD0100A901FD4C
:1023600005C0EEE2F0E1008101FF05C0E8E5F0E123
:10237000018102FDEFCFAA9AAB98EBE9F6E000816C
:102380001181012B31F4EDE9F6E000811181012B7F
:1023900019F0A898A99A10C0FD0100A902FD05C076
:1023A000EEE2F0E1008102FF05C0E8E5F0E1018125
:1023B00002FDEFCFA89AA998A991B9910895BA936F
:1023C000AA939A938A93A3EDBBE0FD01068D178D26
:1023D000012B09F443C0468D4A9500E01370000FAD
:1023E000012F001F842F8F7182958F7090E0800FD6
:1023F000BC01605A7E4F8B01000F111FF801ED5296
:10240000FC4F2081318101E010E04F700E940B1AD7
:10241000009510950223132398018B010E948A07CF
:1024200088599E4F8C01000F111FF801ED52FC4F8F
:102430002081318101E010E0FD01468D4A954F7009
:102440000E940B1A009510950223132398018C010A
:102450000E948A0700E0FD01068F078F89919991FC
:10246000A991B99108958A93F8948091E50E00E0BE
:102470000093E50E789480FB8EF0009121100B30D4
:1024800078F0E5EDF5E03081E9EDF5E02081E7ED6C
:10249000F5E0008111810E94880A00E0009321107C
:1024A000879915C081FB86F0009122100B3078F0DF
:1024B000E5EDF5E03081E9EDF5E02081E7EDF5E0CF
:1024C000008111810E946A0D00E00093221005E056
:1024D0000E94AD19002369F4E1E2F0E10081039567
:1024E000008301810395018328EE33E005E00E941B
:1024F0009D19899108955A924A92BA93AA939A93F0
:102500008A93F89401B5006101BD01B5076001BD72
:102510007894F3DDAF9A0E94DC070E940F09012B2B
:1025200029F0E3EDFBE001A9016001AB0E9468190D
:102530002FEF30E001EA10E00E94480AF89401B55C
:10254000006101BD01B5076001BD78940E946C0A6D
:102550001091630013FD02C00E94BC07129A1A98E2
:10256000E5EDF5E03081E9EDF5E02081E7EDF5E01E
:10257000008111810E94880A87990CC0E5EDF5E081
:102580003081E9EDF5E02081E7EDF5E00081118192
:102590000E946A0DA895869916C000E711E00E9476
:1025A0007108002381F00E944706002331F0E3ED1B
:1025B000FBE001A9026001AB06C026EB3FEF04E798
:1025C00011E00E948A0702E310E087DD00916500B8
:1025D0000E7F009365000D7F0093650005B30C7FAF
:1025E00005BB05B3037F05BB05B30F7C05BB05B376
:1025F0000F7305BBA1E1B0E10CE617E0FD01008718
:102600001187E3EDFAE00181043078F08CE697E081
:1026100043E00E94FD19202F30E008EC039F029F49
:1026200080199109FD018087918700E010E00D93EA
:102630000C93119701E0FD010487158705C01A9AD4
:10264000AD98AC9AFD0116872085318506E00E9481
:102650009D1900E0FD01068720ED37E007E00E94AC
:102660009D19A895E3EDFBE002A913A90F3F1F4FA9
:1026700001A959F407FF03C00E94A2050AC000681F
:1026800001AB00E00093BC01F7CF0F7701AB0E94D4
:102690008A05A8950091E40E002309F0FFCF209150
:1026A000E90E30E0E5EDF5E00081118120173107FA
:1026B00021F001E011E00E948A07A895D4DEA895D8
:1026C00031DDA8950E94D306A89579DEE3E1FCE010
:1026D0008081918196958795823300E0900768F01C
:1026E000FD0104851585013020E0104031F40CEB2C
:1026F00012E000871187248725878C3300E090073C
:1027000068F0FD0104851585013020E0104031F4AA
:102710000CE211E000871187248725870D911C9119
:102720001197012B59F4FD0182839383E3EDFAE0C5
:10273000018110E0FD010683178388C00D91119778
:10274000053020E0120729F00D9111970A30120789
:1027500069F5FD0184839583E3EDFAE03181232F50
:1027600030E0FD01228733878C0142815381041BB5
:10277000150B0E3F1F4F24F400ED17E00087118763
:10278000422F50E006811781401B510B042F052B6F
:1027900069F004E6059F102D049F110D40855185B9
:1027A0004019510B40875187268337830D911C9127
:1027B00011970A30104009F049C0FD0184839583C8
:1027C000E3EDFAE040805180052D43E00E94FD19C1
:1027D00010E0FD01BC0122813381621B730B0617DF
:1027E000170728F4008511850C591F4F23C0601767
:1027F000710710F584159107F9F06F3F4FEF7407DB
:10280000DCF0AC014150504044155040A9F0AC01FF
:102810004F5F5F4F4415504079F014871587061BB2
:10282000170B023010400085118510F0085C01C0C4
:102830000456104000871187118511231AF400E017
:102840000087018700E00D930C931197AC9AE3ED9C
:10285000FAE0008110E08017910708F0F0CE06E062
:102860000E94AD19002339F4FD010685002319F4F7
:102870001A98AD9AAC9A07E00E94AD19002309F0AE
:10288000F0CE01E0FD0106871A9AAD98AC9A0D9141
:102890001C910F5F1F4F1C930E93D6CE8E0108958F
:1028A000ECE8F0E02091231010E00227E00FF11F88
:1028B0000491009323100895792FF894E8E5F0E14E
:1028C000008111817894E4E2F0E126813781A8014A
:1028D000421B530B44835583952F4130904024F481
:1028E000352F30584483358306831783972F0895F7
:1028F0008A932497ECE2F5E330E08E0144E050E067
:102900000E94451A80E00F9B03C081E004E4088325
:102910000E9B03C0826004E409830D9B03C08460A6
:1029200004E40A830C9B03C0886004E40B838823BF
:10293000A1F020E030E08E010E945905BDDF00913A
:10294000D80E002311F000E009C0DF9ADD9AD99A71
:1029500000916200016000936200082F2496899123
:102960000895FA92EA92DA92CA92BA92AA929A9246
:102970008A927A926A925A924A92BA93AA939A93B4
:102980008A936897A4E2B0E10C91013258F1FD01FD
:102990000181003238F10281003220F103810032DE
:1029A00008F100E00C930183028303830093D203B8
:1029B0000085028700E000870187689689919991D8
:1029C000A991B9914990599069907990899099907D
:1029D000A990B990C990D990E990F99008950C9177
:1029E00003950C930C91003248F414E0019F800190
:1029F00000581E4F0E947108002389F786990AC06B
:102A00000C91003239F401E20C9304C0FD01018104
:102A100003950183FD010181003248F414E0019F18
:102A200002E0101E80010E947108002379F7FD0169
:102A300002810032A0F414E0019F00E8000E02E0E1
:102A4000101E80010E947108002349F0FD010281DF
:102A500003950283ECCFFD01038103950383FD0100
:102A60000381003248F414E0019F03E0101E80014E
:102A70000E947108002379F70FE00E94730105E5B9
:102A80000B830A830983088320E08E010E94C20120
:102A900000E8A02E01E0B02E83EB96E004E0C02E0B
:102AA0004E018B0C00E0901E3E0102E0600E00E043
:102AB000701E2E0103E0400E00E0501E1C9104E049
:102AC000109F0A0C1B1C000C111CF001ED52FC4F56
:102AD00000810883FD01118104E0109F0A0C1B1C7A
:102AE00000E8000E00E0101E000C111CF001ED5279
:102AF000FC4F0081F4010083FD01128104E0109F6E
:102B00000A0C1B1C00E0000E01E0101E000C111C42
:102B1000F001ED52FC4F0081F3010083FD011381B0
:102B200004E0109F0A0C1B1C00E8000E01E0101EC0
:102B3000000C111CF001ED52FC4F0081F2010083EA
:102B40000C91013219F4FC010081088320E08E0110
:102B50000E94C2011C9104E0109F0A0C1B1C000C77
:102B6000111CF001ED52FC4F11811883FD01118100
:102B7000109F0A0C1B1C00E8000E00E0101E000C49
:102B8000111CF001ED52FC4F1181F4011083FD0185
:102B9000128104E0109F0A0C1B1C00E0000E01E0F3
:102BA000101E000C111CF001ED52FC4F1181F301BD
:102BB0001083FD01138104E0109F0A0C1B1C00E828
:102BC000000E01E0101E000C111CF001ED52FC4F34
:102BD0001181F20110830C91013219F4FC01118171
:102BE000188320E08E010E94C201029601E0A00E2F
:102BF00000E0B01ECA9409F061CF0EEB0B830A838C
:102C00000983088320E08E010E94C20183E390E1E2
:102C10003C0109E0402E8E010E9440030881F3012F
:102C20000083098101870A81028B0B81038F01E0F8
:102C3000600E00E0701E4A9471F703ED802E0BE0E9
:102C4000902E0C910132F9F500E0009323102C0135
:102C500009E0602EF20101912F010E9450146A9444
:102C6000C9F700912310002319F5FC010781002307
:102C7000F9F002E20C9320811181EDEBF6E0208364
:102C80001183F40100A911A9000F111FE00FF11F1A
:102C900001810B7F0183EDEBF6E000811181EBEB0D
:102CA000F6E0208131810217130714F41A9A0BC041
:102CB000F40100A911A9000F111FE00FF11F0181FC
:102CC000046001831A98BB247D018D01055F1F4FAD
:102CD0000A871B87BE82BF8203E916E00C831D832F
:102CE0008887998700E20C87BD86F7012081203212
:102CF00008F0D6C1022F02950F708B2D880F800F20
:102D0000805F01E010E04B2D0E940B1A0E871F8799
:102D1000F40100A911A94E855F8540235123452B5D
:102D200009F091C1E885F985C080D18000E0009369
:102D300023102F0199E0F20101912F010E945014FC
:102D40009A95C9F790E08C0100511040000F111FB7
:102D50009401200F311F880F991F8401080F191F3C
:102D6000088B198B00912310002309F033C1E885EB
:102D7000F9850781002309F42DC10AEAC01600E095
:102D8000D00609F506810C3009F48AC101E010E093
:102D9000F70140814F700E940B1AE889F989408140
:102DA000518140235123452B71F4F9014081518118
:102DB00040235123452B39F420813181202B312BA5
:102DC000208331836DC12C853D85F701008110E0A2
:102DD000020F131F000F111FF401E00FF11F0081FC
:102DE00011819601201B310B2C8B3D8BC082D1822F
:102DF000F701A0802C853D850A2D10E0020F131FDE
:102E0000005A1C4F000F111FF801ED52FC4F0081BA
:102E100011810E8B1F8B01E010E04A2D4F700E9434
:102E20000B1A280101E010E04A2D0E940B1A38010C
:102E30000E811F810F591E4F0A8B1B8B8E819F8124
:102E4000805A9E4F860142E050E00E94291A2E8946
:102E5000322F330F330B0217130700E1BCF0A0161B
:102E6000EC81FD8150F400811181602A712A930167
:102E700020173107E1F18C0138C002811381402A0B
:102E8000512A92012017310791F12DC0A016EC8133
:102E9000FD81A8F4008111816094709460227122F8
:102EA00093012017310719F1E1EDF6E0008111815E
:102EB0004E855F8540235123452BC9F4DCCF028129
:102EC00013814094509440225122920120173107DF
:102ED00071F0E1EDF6E0008111814E855F854023C0
:102EE0005123452B21F40A891B890E948A07F70187
:102EF000208101E010E0422F4F700E940B1A280140
:102F0000E889F9890081118104211521012B09F437
:102F100057C022952F7030E08E819F81820F931FC2
:102F200088599E4F0C891D89013010403CF1202F9B
:102F30003D890FEF039F102D029F002D110DFD0104
:102F40004481558155954795559547950E94291A75
:102F5000159507952F890217104080F0E3EDF3E0F7
:102F60008C01000F111FE00FF11F00811181402A19
:102F7000512A92012017310719F11FC0E3EDF3E048
:102F80008C01000F111FE00FF11F008111819201D0
:102F900020953095202331232017310789F0E1ED6A
:102FA000F6E06081718101E010E04B2D485F0E94E6
:102FB0000B1A06231723012B19F48C010E948A0790
:102FC00001E010E0F70140814F700E940B1AE88980
:102FD000F989F2CEEA85FB85008103950083EBED4C
:102FE000F5E040815181EA85FB8500814017504022
:102FF00028F50E851F85FD0140855185402B512BFD
:103000004087518701E010E0F70140814F700E9436
:103010000B1A00951095E889F98940815181402368
:1030200051234083518301E010E0F70140814F704C
:103030000E940B1A00951095F90128C0F701008134
:103040000A9500832DC090E001E010E02F70422F20
:103050000E940B1A009510959C01220F331FE20F5E
:10306000F31F20813181202331232083318301E02C
:1030700010E0F70140814F700E940B1A00951095E7
:103080004097880F991FF401E80FF91F20813181C3
:10309000202331232083318320E0EA85FB852083B0
:1030A000F701008103950083B3940C851D85005EB4
:1030B0001F4F0C871D8708851985075F1F4F0887DD
:1030C00019870C811D810C5F1F4F0C831D830E819E
:1030D0001F810E5F1F4F0E831F830A851B850F5FA5
:1030E0001F4F0A871B8701E0E00E00E0F01E04E09E
:1030F000B01608F4FACDA89560CC5A924A92BA93C9
:10310000AA939A938A932801C901F801008107FFC5
:1031100006C00FEF0093571000810F7700830091D6
:103120005710002319F110811F700E94D6030093DD
:1031300057100F3F19F400EAF20100830091571075
:103140000E3F19F400E9F201008300E00093231020
:10315000DC0188E00D910E9450148A95D9F7009106
:1031600023100023A9F000ECF20111C000E000934D
:103170002310D90188E00D910E9450148A95D9F747
:1031800000912310002379F7F20100810068008389
:1031900089919991A991B991499059900895592F80
:1031A000482F202F2A9539F02A9551F0225061F0AE
:1031B000245071F046C080E891E000E012E00CC0BD
:1031C00080E092E000E8FACF80E892E000E003C0FF
:1031D00080E093E000E813E09C01220F331FF90127
:1031E000ED52FC4F208131812F3F3F4F49F59C012B
:1031F0002F5F3F4F220F331FF901ED52FC4F20810B
:1032000031812F3F3F4FE1F49C012E5F3F4F220F52
:10321000331FF901ED52FC4F208131812F3F3F4F89
:1032200079F49C012D5F3F4F220F331FF901ED52BE
:10323000FC4F208131812F3F3F4F11F48C0106C09C
:1032400004968017910740F200E010E0842F952F3C
:103250000895BA93AA93B8012C3701E03007C9F456
:1032600000E0FB01A3EBB6E014E0318120810D907A
:103270001D902015310509F4039532961A95A9F78A
:10328000043011F400E021C020E831E002C02C5FDE
:103290003F4F24173507C0F400E0FB01A3EDB3E076
:1032A0000901000C111CA00DB11D14E0118000805B
:1032B0002D903D900214130409F4039532961A954B
:1032C000A9F7043021F7DECF01E0A991B991089563
:1032D00000E010E0E8E5F0E100830183EAE5F0E1D9
:1032E00028E0019301932A95E1F700938B000BE00E
:1032F00000938A0006EE10938700009386000091E9
:103300007D00006100937D000895BA93AA93FA931B
:10331000EA930A930FB7A8E5B0E1ED91FC913196DD
:10332000FF77A8E5B0E1ED93FC9311970FBF0991EA
:10333000E991F991A991B9911895F894E8E5F0E12E
:10334000408151817894240F351F12E0019FF001D4
:10335000E85AFF4E228333830895F894E8E5F0E1BC
:10336000208131817894EAE5F0E112E0019FE00DDF
:10337000F11D00811181112352F4303434F41058BE
:1033800000831183201731072CF401E008952017E2
:103390003107DCF300E008950BEB0DBF01E00EBF39
:1033A000C0E8D1E00E94511A002311F00E94631A74
:1033B0000E947B120E94931A0C94931AE199FECFFB
:1033C00008954F5F5F4FFADF4EBB5FBBE09A0895F1
:1033D000FADF0DB3F6DF1DB308954F5F5F4F4EBBAD
:1033E0005FBBF894E29AE19A0FBE08950FB6E6DF4C
:1033F0000DBBF5DFE3DF1DBBF0CF0024E8E0EA956D
:1034000032F0001F001C0416D0F3041AF8CF001F7E
:10341000402D009508954A951AF0000F111FFBCF1B
:10342000089500241124EFE0001F111F001C111C3F
:103430000416150610F0041A150AEA95AAF7001FDB
:10344000111FA00100951095089551954195504088
:103450000895FF27552312F4F160F7DF112312F4CA
:10346000F09507D00E94111AF0FD03D0F1FDEDCFC9
:10347000089511950195104008954A952AF03695C2
:10348000279517950795F9CF0895AF93BF93D80166
:103490003BBF07900D9241505040D9F7BF91AF917B
:1034A000089501E0089520E002D0E9F708952D93F2
:1034B00001501040202F212B08953BBF27913BB78F
:1034C000F6DFD9F7089500E3402E05E3502E00E023
:1034D000602EF201362D6BBE07911691F201EE5F60
:1034E000FF4F3F4F3BBFA791B691F201362DEC5FE6
:1034F000FF4F3F4F3BBF479157916691242F252B9C
:10350000262B21F0FA01362FD8DF01C0CCDF07E0EF
:10351000400E00E0501E601EA201662D4E33554342
:103520006040B8F2089500008895FECF44444444BA
:10353000990CD1030000001502BC013E350000804B
:10354000000100000000000000000000000000007A
:1035500000008000C1814001C0804101C080410065
:10356000C1814001C0804100C1814000C181400152
:10357000C0804101C0804100C1814000C181400143
:10358000C0804100C1814001C0804101C080410034
:10359000C1814001C0804100C1814000C181400122
:1035A000C0804100C1814001C0804101C080410014
:1035B000C1814000C1814001C0804101C080410003
:1035C000C1814001C0804100C1814000C1814001F2
:1035D000C0804101C0804100C1814000C1814001E3
:1035E000C0804100C1814001C0804101C0804100D4
:1035F000C1814000C1814001C0804101C0804100C3
:10360000C1814001C0804100C1814000C1814001B1
:10361000C0804100C1814001C0804101C0804100A3
:10362000C1814001C0804100C1814000C181400191
:10363000C0804101C0804100C1814000C181400182
:10364000C0804100C1814001C0804101C080410073
:10365000C1814000C0C101C30302C2C60607C7053D
:10366000C5C404CC0C0DCD0FCFCE0E0ACACB0BC9EE
:103670000908C8D81819D91BDBDA1A1EDEDF1FDDCE
:103680001D1CDC14D4D515D71716D6D21213D3119E
:10369000D1D010F03031F133F3F23236F6F737F59E
:1036A0003534F43CFCFD3DFF3F3EFEFA3A3BFB392E
:1036B000F9F83828E8E929EB2B2AEAEE2E2FEF2D2E
:1036C000EDEC2CE42425E527E7E62622E2E323E1DE
:1036D0002120E0A06061A163A3A26266A6A767A5FE
:1036E0006564A46CACAD6DAF6F6EAEAA6A6BAB696E
:1036F000A9A86878B8B979BB7B7ABABE7E7FBF7D4E
:10370000BDBC7CB47475B577B7B67672B2B373B11D
:103710007170B0509091519353529296565797555D
:103720009594549C5C5D9D5F9F9E5E5A9A9B5B99AD
:10373000595898884849894B8B8A4A4E8E8F4F8DAD
:103740004D4C8C448485458747468682424383415D
:0337500081804035
:00000001FF
